{
  "_format": "hh-sol-artifact-1",
  "contractName": "MyNFT",
  "sourceName": "contracts/MyNFT.sol",
  "abi": [
    {
      "inputs": [],
      "stateMutability": "nonpayable",
      "type": "constructor"
    },
    {
      "anonymous": false,
      "inputs": [
        {
          "indexed": true,
          "internalType": "address",
          "name": "owner",
          "type": "address"
        },
        {
          "indexed": true,
          "internalType": "address",
          "name": "approved",
          "type": "address"
        },
        {
          "indexed": true,
          "internalType": "uint256",
          "name": "tokenId",
          "type": "uint256"
        }
      ],
      "name": "Approval",
      "type": "event"
    },
    {
      "anonymous": false,
      "inputs": [
        {
          "indexed": true,
          "internalType": "address",
          "name": "owner",
          "type": "address"
        },
        {
          "indexed": true,
          "internalType": "address",
          "name": "operator",
          "type": "address"
        },
        {
          "indexed": false,
          "internalType": "bool",
          "name": "approved",
          "type": "bool"
        }
      ],
      "name": "ApprovalForAll",
      "type": "event"
    },
    {
      "anonymous": false,
      "inputs": [
        {
          "indexed": true,
          "internalType": "address",
          "name": "previousOwner",
          "type": "address"
        },
        {
          "indexed": true,
          "internalType": "address",
          "name": "newOwner",
          "type": "address"
        }
      ],
      "name": "OwnershipTransferred",
      "type": "event"
    },
    {
      "anonymous": false,
      "inputs": [
        {
          "indexed": true,
          "internalType": "address",
          "name": "from",
          "type": "address"
        },
        {
          "indexed": true,
          "internalType": "address",
          "name": "to",
          "type": "address"
        },
        {
          "indexed": true,
          "internalType": "uint256",
          "name": "tokenId",
          "type": "uint256"
        }
      ],
      "name": "Transfer",
      "type": "event"
    },
    {
      "inputs": [
        {
          "internalType": "address",
          "name": "to",
          "type": "address"
        },
        {
          "internalType": "uint256",
          "name": "tokenId",
          "type": "uint256"
        }
      ],
      "name": "approve",
      "outputs": [],
      "stateMutability": "nonpayable",
      "type": "function"
    },
    {
      "inputs": [
        {
          "internalType": "address",
          "name": "owner",
          "type": "address"
        }
      ],
      "name": "balanceOf",
      "outputs": [
        {
          "internalType": "uint256",
          "name": "",
          "type": "uint256"
        }
      ],
      "stateMutability": "view",
      "type": "function"
    },
    {
      "inputs": [
        {
          "internalType": "uint256",
          "name": "tokenId",
          "type": "uint256"
        }
      ],
      "name": "getApproved",
      "outputs": [
        {
          "internalType": "address",
          "name": "",
          "type": "address"
        }
      ],
      "stateMutability": "view",
      "type": "function"
    },
    {
      "inputs": [
        {
          "internalType": "address",
          "name": "owner",
          "type": "address"
        },
        {
          "internalType": "address",
          "name": "operator",
          "type": "address"
        }
      ],
      "name": "isApprovedForAll",
      "outputs": [
        {
          "internalType": "bool",
          "name": "",
          "type": "bool"
        }
      ],
      "stateMutability": "view",
      "type": "function"
    },
    {
      "inputs": [],
      "name": "mintNFT",
      "outputs": [],
      "stateMutability": "payable",
      "type": "function"
    },
    {
      "inputs": [],
      "name": "name",
      "outputs": [
        {
          "internalType": "string",
          "name": "",
          "type": "string"
        }
      ],
      "stateMutability": "view",
      "type": "function"
    },
    {
      "inputs": [],
      "name": "owner",
      "outputs": [
        {
          "internalType": "address",
          "name": "",
          "type": "address"
        }
      ],
      "stateMutability": "view",
      "type": "function"
    },
    {
      "inputs": [
        {
          "internalType": "uint256",
          "name": "tokenId",
          "type": "uint256"
        }
      ],
      "name": "ownerOf",
      "outputs": [
        {
          "internalType": "address",
          "name": "",
          "type": "address"
        }
      ],
      "stateMutability": "view",
      "type": "function"
    },
    {
      "inputs": [
        {
          "internalType": "uint256",
          "name": "tokenId",
          "type": "uint256"
        }
      ],
      "name": "pickRandomFirstWord",
      "outputs": [
        {
          "internalType": "string",
          "name": "",
          "type": "string"
        }
      ],
      "stateMutability": "view",
      "type": "function"
    },
    {
      "inputs": [
        {
          "internalType": "uint256",
          "name": "tokenId",
          "type": "uint256"
        }
      ],
      "name": "pickRandomSecondWord",
      "outputs": [
        {
          "internalType": "string",
          "name": "",
          "type": "string"
        }
      ],
      "stateMutability": "view",
      "type": "function"
    },
    {
      "inputs": [
        {
          "internalType": "uint256",
          "name": "tokenId",
          "type": "uint256"
        }
      ],
      "name": "pickRandomThirdWord",
      "outputs": [
        {
          "internalType": "string",
          "name": "",
          "type": "string"
        }
      ],
      "stateMutability": "view",
      "type": "function"
    },
    {
      "inputs": [],
      "name": "renounceOwnership",
      "outputs": [],
      "stateMutability": "nonpayable",
      "type": "function"
    },
    {
      "inputs": [
        {
          "internalType": "address",
          "name": "from",
          "type": "address"
        },
        {
          "internalType": "address",
          "name": "to",
          "type": "address"
        },
        {
          "internalType": "uint256",
          "name": "tokenId",
          "type": "uint256"
        }
      ],
      "name": "safeTransferFrom",
      "outputs": [],
      "stateMutability": "nonpayable",
      "type": "function"
    },
    {
      "inputs": [
        {
          "internalType": "address",
          "name": "from",
          "type": "address"
        },
        {
          "internalType": "address",
          "name": "to",
          "type": "address"
        },
        {
          "internalType": "uint256",
          "name": "tokenId",
          "type": "uint256"
        },
        {
          "internalType": "bytes",
          "name": "_data",
          "type": "bytes"
        }
      ],
      "name": "safeTransferFrom",
      "outputs": [],
      "stateMutability": "nonpayable",
      "type": "function"
    },
    {
      "inputs": [
        {
          "internalType": "address",
          "name": "operator",
          "type": "address"
        },
        {
          "internalType": "bool",
          "name": "approved",
          "type": "bool"
        }
      ],
      "name": "setApprovalForAll",
      "outputs": [],
      "stateMutability": "nonpayable",
      "type": "function"
    },
    {
      "inputs": [
        {
          "internalType": "bytes4",
          "name": "interfaceId",
          "type": "bytes4"
        }
      ],
      "name": "supportsInterface",
      "outputs": [
        {
          "internalType": "bool",
          "name": "",
          "type": "bool"
        }
      ],
      "stateMutability": "view",
      "type": "function"
    },
    {
      "inputs": [],
      "name": "symbol",
      "outputs": [
        {
          "internalType": "string",
          "name": "",
          "type": "string"
        }
      ],
      "stateMutability": "view",
      "type": "function"
    },
    {
      "inputs": [
        {
          "internalType": "uint256",
          "name": "tokenId",
          "type": "uint256"
        }
      ],
      "name": "tokenURI",
      "outputs": [
        {
          "internalType": "string",
          "name": "",
          "type": "string"
        }
      ],
      "stateMutability": "view",
      "type": "function"
    },
    {
      "inputs": [
        {
          "internalType": "address",
          "name": "from",
          "type": "address"
        },
        {
          "internalType": "address",
          "name": "to",
          "type": "address"
        },
        {
          "internalType": "uint256",
          "name": "tokenId",
          "type": "uint256"
        }
      ],
      "name": "transferFrom",
      "outputs": [],
      "stateMutability": "nonpayable",
      "type": "function"
    },
    {
      "inputs": [
        {
          "internalType": "address",
          "name": "newOwner",
          "type": "address"
        }
      ],
      "name": "transferOwnership",
      "outputs": [],
      "stateMutability": "nonpayable",
      "type": "function"
    },
    {
      "inputs": [],
      "name": "withdraw",
      "outputs": [],
      "stateMutability": "payable",
      "type": "function"
    }
  ],
  "bytecode": "0x608060405260405180610c600160405280610c21815260200162005f7d610c21913960099080519060200190620000389291906200136b565b506040518061032001604052806040518060400160405280600881526020017f4e6575726f74696300000000000000000000000000000000000000000000000081525081526020016040518060400160405280600681526020017f4e6172726f77000000000000000000000000000000000000000000000000000081525081526020016040518060400160405280600381526020017f4e6577000000000000000000000000000000000000000000000000000000000081525081526020016040518060400160405280600581526020017f4e616d656400000000000000000000000000000000000000000000000000000081525081526020016040518060400160405280600881526020017f4e65696768626f7200000000000000000000000000000000000000000000000081525081526020016040518060400160405280600581526020017f4e6f69737900000000000000000000000000000000000000000000000000000081525081526020016040518060400160405280600581526020017f4e696e6a6100000000000000000000000000000000000000000000000000000081525081526020016040518060400160405280600881526020017f4e6567617469766500000000000000000000000000000000000000000000000081525081526020016040518060400160405280600581526020017f4e616b656400000000000000000000000000000000000000000000000000000081525081526020016040518060400160405280600481526020017f4e6f69720000000000000000000000000000000000000000000000000000000081525081526020016040518060400160405280600481526020017f4e6f6f620000000000000000000000000000000000000000000000000000000081525081526020016040518060400160405280600781526020017f4e65757472616c0000000000000000000000000000000000000000000000000081525081526020016040518060400160405280600581526020017f4e6565647900000000000000000000000000000000000000000000000000000081525081526020016040518060400160405280600781526020017f4e6175676874790000000000000000000000000000000000000000000000000081525081526020016040518060400160405280600581526020017f4e6169766500000000000000000000000000000000000000000000000000000081525081526020016040518060400160405280600581526020017f4e6f76656c00000000000000000000000000000000000000000000000000000081525081526020016040518060400160405280600781526020017f4e61747572616c0000000000000000000000000000000000000000000000000081525081526020016040518060400160405280600781526020017f4e6f7461626c650000000000000000000000000000000000000000000000000081525081526020016040518060400160405280600981526020017f4e6f746f72696f7573000000000000000000000000000000000000000000000081525081526020016040518060400160405280600481526020017f4e756d620000000000000000000000000000000000000000000000000000000081525081526020016040518060400160405280600681526020017f4e6577626965000000000000000000000000000000000000000000000000000081525081526020016040518060400160405280600781526020017f4e6572766f75730000000000000000000000000000000000000000000000000081525081526020016040518060400160405280600481526020017f4e6963650000000000000000000000000000000000000000000000000000000081525081526020016040518060400160405280600581526020017f4e6572647900000000000000000000000000000000000000000000000000000081525081526020016040518060400160405280600b81526020017f4e696768746d6172697368000000000000000000000000000000000000000000815250815250600a90601962000618929190620013fc565b506040518061032001604052806040518060400160405280600981526020017f46696e616e6369616c000000000000000000000000000000000000000000000081525081526020016040518060400160405280600981526020017f466f6f6c70726f6f66000000000000000000000000000000000000000000000081525081526020016040518060400160405280600481526020017f467265650000000000000000000000000000000000000000000000000000000081525081526020016040518060400160405280600681526020017f466f726d6572000000000000000000000000000000000000000000000000000081525081526020016040518060400160405280600881526020017f466169746866756c00000000000000000000000000000000000000000000000081525081526020016040518060400160405280600981526020017f46696e616c697a6564000000000000000000000000000000000000000000000081525081526020016040518060400160405280600681526020017f467574696c65000000000000000000000000000000000000000000000000000081525081526020016040518060400160405280600881526020017f466561726c65737300000000000000000000000000000000000000000000000081525081526020016040518060400160405280600581526020017f46616e637900000000000000000000000000000000000000000000000000000081525081526020016040518060400160405280600681526020017f4661696c6564000000000000000000000000000000000000000000000000000081525081526020016040518060400160405280600981526020017f46616e746173746963000000000000000000000000000000000000000000000081525081526020016040518060400160405280600681526020017f466561726564000000000000000000000000000000000000000000000000000081525081526020016040518060400160405280600781526020017f466c616d696e670000000000000000000000000000000000000000000000000081525081526020016040518060400160405280600781526020017f46726167696c650000000000000000000000000000000000000000000000000081525081526020016040518060400160405280600681526020017f46616c6c656e000000000000000000000000000000000000000000000000000081525081526020016040518060400160405280600981526020017f466f72676f7474656e000000000000000000000000000000000000000000000081525081526020016040518060400160405280600981526020017f466f7274756e617465000000000000000000000000000000000000000000000081525081526020016040518060400160405280600a81526020017f46756e6374696f6e616c0000000000000000000000000000000000000000000081525081526020016040518060400160405280600581526020017f46756e6b7900000000000000000000000000000000000000000000000000000081525081526020016040518060400160405280600781526020017f467572696f75730000000000000000000000000000000000000000000000000081525081526020016040518060400160405280600981526020017f466f72676976696e67000000000000000000000000000000000000000000000081525081526020016040518060400160405280600481526020017f466173740000000000000000000000000000000000000000000000000000000081525081526020016040518060400160405280600981526020017f46616e61746963616c000000000000000000000000000000000000000000000081525081526020016040518060400160405280600981526020017f46616974686c657373000000000000000000000000000000000000000000000081525081526020016040518060400160405280600981526020017f466f6f746c6f6f73650000000000000000000000000000000000000000000000815250815250600b90601962000bf8929190620013fc565b506040518061028001604052806040518060400160405280600881526020017f5468656f7269737400000000000000000000000000000000000000000000000081525081526020016040518060400160405280600a81526020017f546563686e6f637261740000000000000000000000000000000000000000000081525081526020016040518060400160405280600681526020017f547972616e74000000000000000000000000000000000000000000000000000081525081526020016040518060400160405280600c81526020017f54726f75626c656d616b6572000000000000000000000000000000000000000081525081526020016040518060400160405280600981526020017f547269636b73746572000000000000000000000000000000000000000000000081525081526020016040518060400160405280600681526020017f54726f706879000000000000000000000000000000000000000000000000000081525081526020016040518060400160405280600781526020017f546561636865720000000000000000000000000000000000000000000000000081525081526020016040518060400160405280600781526020017f5468696e6b65720000000000000000000000000000000000000000000000000081525081526020016040518060400160405280600581526020017f546967657200000000000000000000000000000000000000000000000000000081525081526020016040518060400160405280600581526020017f547261736800000000000000000000000000000000000000000000000000000081525081526020016040518060400160405280600881526020017f54726176656c657200000000000000000000000000000000000000000000000081525081526020016040518060400160405280600681526020017f5475726b6579000000000000000000000000000000000000000000000000000081525081526020016040518060400160405280600781526020017f546f75726973740000000000000000000000000000000000000000000000000081525081526020016040518060400160405280600b81526020017f5472616e73666f726d657200000000000000000000000000000000000000000081525081526020016040518060400160405280600a81526020017f546563686e696369616e0000000000000000000000000000000000000000000081525081526020016040518060400160405280600981526020017f54616374696369616e000000000000000000000000000000000000000000000081525081526020016040518060400160405280600a81526020017f5461736b6d61737465720000000000000000000000000000000000000000000081525081526020016040518060400160405280600881526020017f54656c657061746800000000000000000000000000000000000000000000000081525081526020016040518060400160405280600781526020017f5468756e6465720000000000000000000000000000000000000000000000000081525081526020016040518060400160405280600a81526020017f5465726d696e61746f7200000000000000000000000000000000000000000000815250815250600c906014620010b192919062001463565b50348015620010bf57600080fd5b506040518060400160405280600c81526020017f4964656e74696679204e465400000000000000000000000000000000000000008152506040518060400160405280600581526020017f4a4f5247450000000000000000000000000000000000000000000000000000008152508160009080519060200190620011449291906200136b565b5080600190805190602001906200115d9291906200136b565b5050506200118062001174620011d160201b60201c565b620011d960201b60201c565b620011cb6040518060400160405280601e81526020017f54686973206973206d79204e465420636f6e74726163742e20576f61682100008152506200129f60201b620016381760201c565b62001684565b600033905090565b6000600760009054906101000a900473ffffffffffffffffffffffffffffffffffffffff16905081600760006101000a81548173ffffffffffffffffffffffffffffffffffffffff021916908373ffffffffffffffffffffffffffffffffffffffff1602179055508173ffffffffffffffffffffffffffffffffffffffff168173ffffffffffffffffffffffffffffffffffffffff167f8be0079c531659141344cd1fd0a4f28419497f9722a3daafe3b4186f6b6457e060405160405180910390a35050565b6200133f81604051602401620012b6919062001598565b6040516020818303038152906040527f41304fac000000000000000000000000000000000000000000000000000000007bffffffffffffffffffffffffffffffffffffffffffffffffffffffff19166020820180517bffffffffffffffffffffffffffffffffffffffffffffffffffffffff83818316178352505050506200134260201b60201c565b50565b60008151905060006a636f6e736f6c652e6c6f679050602083016000808483855afa5050505050565b82805462001379906200160e565b90600052602060002090601f0160209004810192826200139d5760008555620013e9565b82601f10620013b857805160ff1916838001178555620013e9565b82800160010185558215620013e9579182015b82811115620013e8578251825591602001919060010190620013cb565b5b509050620013f89190620014ca565b5090565b82805482825590600052602060002090810192821562001450579160200282015b828111156200144f5782518290805190602001906200143e9291906200136b565b50916020019190600101906200141d565b5b5090506200145f9190620014e9565b5090565b828054828255906000526020600020908101928215620014b7579160200282015b82811115620014b6578251829080519060200190620014a59291906200136b565b509160200191906001019062001484565b5b509050620014c69190620014e9565b5090565b5b80821115620014e5576000816000905550600101620014cb565b5090565b5b808211156200150d576000818162001503919062001511565b50600101620014ea565b5090565b5080546200151f906200160e565b6000825580601f1062001533575062001554565b601f016020900490600052602060002090810190620015539190620014ca565b5b50565b60006200156482620015bc565b620015708185620015c7565b935062001582818560208601620015d8565b6200158d8162001673565b840191505092915050565b60006020820190508181036000830152620015b4818462001557565b905092915050565b600081519050919050565b600082825260208201905092915050565b60005b83811015620015f8578082015181840152602081019050620015db565b8381111562001608576000848401525b50505050565b600060028204905060018216806200162757607f821691505b602082108114156200163e576200163d62001644565b5b50919050565b7f4e487b7100000000000000000000000000000000000000000000000000000000600052602260045260246000fd5b6000601f19601f8301169050919050565b6148e980620016946000396000f3fe60806040526004361061012a5760003560e01c806370a08231116100ab578063b187301f1161006f578063b187301f146103b0578063b88d4fde146103ed578063c575757a14610416578063c87b56dd14610453578063e985e9c514610490578063f2fde38b146104cd5761012a565b806370a08231146102dd578063715018a61461031a5780638da5cb5b1461033157806395d89b411461035c578063a22cb465146103875761012a565b806323b872dd116100f257806323b872dd146102075780632de38d68146102305780633ccfd60b1461026d57806342842e0e146102775780636352211e146102a05761012a565b806301ffc9a71461012f57806306fdde031461016c578063081812fc14610197578063095ea7b3146101d457806314f710fe146101fd575b600080fd5b34801561013b57600080fd5b5061015660048036038101906101519190612af6565b6104f6565b6040516101639190613562565b60405180910390f35b34801561017857600080fd5b506101816105d8565b60405161018e919061357d565b60405180910390f35b3480156101a357600080fd5b506101be60048036038101906101b99190612b48565b61066a565b6040516101cb91906134fb565b60405180910390f35b3480156101e057600080fd5b506101fb60048036038101906101f69190612aba565b6106ef565b005b610205610807565b005b34801561021357600080fd5b5061022e600480360381019061022991906129b4565b610b95565b005b34801561023c57600080fd5b5061025760048036038101906102529190612b48565b610bf5565b604051610264919061357d565b60405180910390f35b610275610d13565b005b34801561028357600080fd5b5061029e600480360381019061029991906129b4565b610dd8565b005b3480156102ac57600080fd5b506102c760048036038101906102c29190612b48565b610df8565b6040516102d491906134fb565b60405180910390f35b3480156102e957600080fd5b5061030460048036038101906102ff919061294f565b610eaa565b604051610311919061383d565b60405180910390f35b34801561032657600080fd5b5061032f610f62565b005b34801561033d57600080fd5b50610346610fea565b60405161035391906134fb565b60405180910390f35b34801561036857600080fd5b50610371611014565b60405161037e919061357d565b60405180910390f35b34801561039357600080fd5b506103ae60048036038101906103a99190612a7e565b6110a6565b005b3480156103bc57600080fd5b506103d760048036038101906103d29190612b48565b6110bc565b6040516103e4919061357d565b60405180910390f35b3480156103f957600080fd5b50610414600480360381019061040f9190612a03565b6111da565b005b34801561042257600080fd5b5061043d60048036038101906104389190612b48565b61123c565b60405161044a919061357d565b60405180910390f35b34801561045f57600080fd5b5061047a60048036038101906104759190612b48565b61135a565b604051610487919061357d565b60405180910390f35b34801561049c57600080fd5b506104b760048036038101906104b29190612978565b6114ac565b6040516104c49190613562565b60405180910390f35b3480156104d957600080fd5b506104f460048036038101906104ef919061294f565b611540565b005b60007f80ac58cd000000000000000000000000000000000000000000000000000000007bffffffffffffffffffffffffffffffffffffffffffffffffffffffff1916827bffffffffffffffffffffffffffffffffffffffffffffffffffffffff191614806105c157507f5b5e139f000000000000000000000000000000000000000000000000000000007bffffffffffffffffffffffffffffffffffffffffffffffffffffffff1916827bffffffffffffffffffffffffffffffffffffffffffffffffffffffff1916145b806105d157506105d0826116d1565b5b9050919050565b6060600080546105e790613ad1565b80601f016020809104026020016040519081016040528092919081815260200182805461061390613ad1565b80156106605780601f1061063557610100808354040283529160200191610660565b820191906000526020600020905b81548152906001019060200180831161064357829003601f168201915b5050505050905090565b60006106758261173b565b6106b4576040517f08c379a00000000000000000000000000000000000000000000000000000000081526004016106ab9061379d565b60405180910390fd5b6004600083815260200190815260200160002060009054906101000a900473ffffffffffffffffffffffffffffffffffffffff169050919050565b60006106fa82610df8565b90508073ffffffffffffffffffffffffffffffffffffffff168373ffffffffffffffffffffffffffffffffffffffff16141561076b576040517f08c379a0000000000000000000000000000000000000000000000000000000008152600401610762906137fd565b60405180910390fd5b8073ffffffffffffffffffffffffffffffffffffffff1661078a6117a7565b73ffffffffffffffffffffffffffffffffffffffff1614806107b957506107b8816107b36117a7565b6114ac565b5b6107f8576040517f08c379a00000000000000000000000000000000000000000000000000000000081526004016107ef906136dd565b60405180910390fd5b61080283836117af565b505050565b670de0b6b3a7640000341015610852576040517f08c379a0000000000000000000000000000000000000000000000000000000008152600401610849906135fd565b60405180910390fd5b600061085e6008611868565b9050600061086b82610bf5565b90506000610878836110bc565b905060006108858461123c565b9050600061089285611876565b8484846040516020016108a89493929190613296565b6040516020818303038152906040529050600060098585856108c98a611876565b6040516020016108dd9594939291906132f5565b604051602081830303815290604052905061092c6040518060400160405280601581526020017f0a2d2d2d2d2d2d2d2d2d2d2d2d2d2d2d2d2d2d2d2d0000000000000000000000815250611638565b61093581611638565b6109736040518060400160405280601581526020017f2d2d2d2d2d2d2d2d2d2d2d2d2d2d2d2d2d2d2d2d0a0000000000000000000000815250611638565b60006109ad8387878761098587611a23565b604051602001610999959493929190613414565b604051602081830303815290604052611a23565b90506000816040516020016109c291906134d9565b6040516020818303038152906040529050610a116040518060400160405280601581526020017f0a2d2d2d2d2d2d2d2d2d2d2d2d2d2d2d2d2d2d2d2d0000000000000000000000815250611638565b610a1a81611638565b610a586040518060400160405280601581526020017f2d2d2d2d2d2d2d2d2d2d2d2d2d2d2d2d2d2d2d2d0a0000000000000000000000815250611638565b610a966040518060400160405280601581526020017f0a2d2d2d2d2d2d2d2d2d2d2d2d2d2d2d2d2d2d2d2d0000000000000000000000815250611638565b610abe81604051602001610aaa91906133ae565b604051602081830303815290604052611638565b610afc6040518060400160405280601581526020017f2d2d2d2d2d2d2d2d2d2d2d2d2d2d2d2d2d2d2d2d0a0000000000000000000000815250611638565b610b063389611bad565b610b108882611bcb565b610b1a6008611c3f565b610b3d60405180606001604052806025815260200161484f602591398933611c55565b610b45610fea565b73ffffffffffffffffffffffffffffffffffffffff166108fc349081150290604051600060405180830381858888f19350505050158015610b8a573d6000803e3d6000fd5b505050505050505050565b610ba6610ba06117a7565b82611cf4565b610be5576040517f08c379a0000000000000000000000000000000000000000000000000000000008152600401610bdc9061381d565b60405180910390fd5b610bf0838383611dd2565b505050565b60606000610c29610c0584611876565b604051602001610c1591906134b7565b604051602081830303815290604052612039565b9050600a8054905081610c3c9190613b7d565b9050600a8181548110610c78577f4e487b7100000000000000000000000000000000000000000000000000000000600052603260045260246000fd5b906000526020600020018054610c8d90613ad1565b80601f0160208091040260200160405190810160405280929190818152602001828054610cb990613ad1565b8015610d065780601f10610cdb57610100808354040283529160200191610d06565b820191906000526020600020905b815481529060010190602001808311610ce957829003601f168201915b5050505050915050919050565b610d1b6117a7565b73ffffffffffffffffffffffffffffffffffffffff16610d39610fea565b73ffffffffffffffffffffffffffffffffffffffff1614610d8f576040517f08c379a0000000000000000000000000000000000000000000000000000000008152600401610d86906137bd565b60405180910390fd5b3373ffffffffffffffffffffffffffffffffffffffff166108fc479081150290604051600060405180830381858888f19350505050158015610dd5573d6000803e3d6000fd5b50565b610df3838383604051806020016040528060008152506111da565b505050565b6000806002600084815260200190815260200160002060009054906101000a900473ffffffffffffffffffffffffffffffffffffffff169050600073ffffffffffffffffffffffffffffffffffffffff168173ffffffffffffffffffffffffffffffffffffffff161415610ea1576040517f08c379a0000000000000000000000000000000000000000000000000000000008152600401610e989061371d565b60405180910390fd5b80915050919050565b60008073ffffffffffffffffffffffffffffffffffffffff168273ffffffffffffffffffffffffffffffffffffffff161415610f1b576040517f08c379a0000000000000000000000000000000000000000000000000000000008152600401610f12906136fd565b60405180910390fd5b600360008373ffffffffffffffffffffffffffffffffffffffff1673ffffffffffffffffffffffffffffffffffffffff168152602001908152602001600020549050919050565b610f6a6117a7565b73ffffffffffffffffffffffffffffffffffffffff16610f88610fea565b73ffffffffffffffffffffffffffffffffffffffff1614610fde576040517f08c379a0000000000000000000000000000000000000000000000000000000008152600401610fd5906137bd565b60405180910390fd5b610fe8600061206c565b565b6000600760009054906101000a900473ffffffffffffffffffffffffffffffffffffffff16905090565b60606001805461102390613ad1565b80601f016020809104026020016040519081016040528092919081815260200182805461104f90613ad1565b801561109c5780601f106110715761010080835404028352916020019161109c565b820191906000526020600020905b81548152906001019060200180831161107f57829003601f168201915b5050505050905090565b6110b86110b16117a7565b8383612132565b5050565b606060006110f06110cc84611876565b6040516020016110dc91906133f2565b604051602081830303815290604052612039565b9050600b80549050816111039190613b7d565b9050600b818154811061113f577f4e487b7100000000000000000000000000000000000000000000000000000000600052603260045260246000fd5b90600052602060002001805461115490613ad1565b80601f016020809104026020016040519081016040528092919081815260200182805461118090613ad1565b80156111cd5780601f106111a2576101008083540402835291602001916111cd565b820191906000526020600020905b8154815290600101906020018083116111b057829003601f168201915b5050505050915050919050565b6111eb6111e56117a7565b83611cf4565b61122a576040517f08c379a00000000000000000000000000000000000000000000000000000000081526004016112219061381d565b60405180910390fd5b6112368484848461229f565b50505050565b6060600061127061124c84611876565b60405160200161125c91906133d0565b604051602081830303815290604052612039565b9050600c80549050816112839190613b7d565b9050600c81815481106112bf577f4e487b7100000000000000000000000000000000000000000000000000000000600052603260045260246000fd5b9060005260206000200180546112d490613ad1565b80601f016020809104026020016040519081016040528092919081815260200182805461130090613ad1565b801561134d5780601f106113225761010080835404028352916020019161134d565b820191906000526020600020905b81548152906001019060200180831161133057829003601f168201915b5050505050915050919050565b60606113658261173b565b6113a4576040517f08c379a000000000000000000000000000000000000000000000000000000000815260040161139b9061377d565b60405180910390fd5b60006006600084815260200190815260200160002080546113c490613ad1565b80601f01602080910402602001604051908101604052809291908181526020018280546113f090613ad1565b801561143d5780601f106114125761010080835404028352916020019161143d565b820191906000526020600020905b81548152906001019060200180831161142057829003601f168201915b50505050509050600061144e6122fb565b90506000815114156114645781925050506114a7565b600082511115611499578082604051602001611481929190613272565b604051602081830303815290604052925050506114a7565b6114a284612312565b925050505b919050565b6000600560008473ffffffffffffffffffffffffffffffffffffffff1673ffffffffffffffffffffffffffffffffffffffff16815260200190815260200160002060008373ffffffffffffffffffffffffffffffffffffffff1673ffffffffffffffffffffffffffffffffffffffff16815260200190815260200160002060009054906101000a900460ff16905092915050565b6115486117a7565b73ffffffffffffffffffffffffffffffffffffffff16611566610fea565b73ffffffffffffffffffffffffffffffffffffffff16146115bc576040517f08c379a00000000000000000000000000000000000000000000000000000000081526004016115b3906137bd565b60405180910390fd5b600073ffffffffffffffffffffffffffffffffffffffff168173ffffffffffffffffffffffffffffffffffffffff16141561162c576040517f08c379a00000000000000000000000000000000000000000000000000000000081526004016116239061361d565b60405180910390fd5b6116358161206c565b50565b6116ce8160405160240161164c919061357d565b6040516020818303038152906040527f41304fac000000000000000000000000000000000000000000000000000000007bffffffffffffffffffffffffffffffffffffffffffffffffffffffff19166020820180517bffffffffffffffffffffffffffffffffffffffffffffffffffffffff83818316178352505050506123b9565b50565b60007f01ffc9a7000000000000000000000000000000000000000000000000000000007bffffffffffffffffffffffffffffffffffffffffffffffffffffffff1916827bffffffffffffffffffffffffffffffffffffffffffffffffffffffff1916149050919050565b60008073ffffffffffffffffffffffffffffffffffffffff166002600084815260200190815260200160002060009054906101000a900473ffffffffffffffffffffffffffffffffffffffff1673ffffffffffffffffffffffffffffffffffffffff1614159050919050565b600033905090565b816004600083815260200190815260200160002060006101000a81548173ffffffffffffffffffffffffffffffffffffffff021916908373ffffffffffffffffffffffffffffffffffffffff160217905550808273ffffffffffffffffffffffffffffffffffffffff1661182283610df8565b73ffffffffffffffffffffffffffffffffffffffff167f8c5be1e5ebec7d5bd14f71427d1e84f3dd0314c0f7b2291e5b200ac8c7c3b92560405160405180910390a45050565b600081600001549050919050565b606060008214156118be576040518060400160405280600181526020017f30000000000000000000000000000000000000000000000000000000000000008152509050611a1e565b600082905060005b600082146118f05780806118d990613b34565b915050600a826118e9919061395c565b91506118c6565b60008167ffffffffffffffff811115611932577f4e487b7100000000000000000000000000000000000000000000000000000000600052604160045260246000fd5b6040519080825280601f01601f1916602001820160405280156119645781602001600182028036833780820191505090505b5090505b60008514611a175760018261197d91906139e7565b9150600a8561198c9190613b7d565b60306119989190613906565b60f81b8183815181106119d4577f4e487b7100000000000000000000000000000000000000000000000000000000600052603260045260246000fd5b60200101907effffffffffffffffffffffffffffffffffffffffffffffffffffffffffffff1916908160001a905350600a85611a10919061395c565b9450611968565b8093505050505b919050565b6060600082511415611a4657604051806020016040528060008152509050611ba8565b60006040518060600160405280604081526020016148746040913990506000600360028551611a759190613906565b611a7f919061395c565b6004611a8b919061398d565b67ffffffffffffffff811115611aca577f4e487b7100000000000000000000000000000000000000000000000000000000600052604160045260246000fd5b6040519080825280601f01601f191660200182016040528015611afc5781602001600182028036833780820191505090505b509050600182016020820185865187015b80821015611b68576003820191508151603f8160121c168501518453600184019350603f81600c1c168501518453600184019350603f8160061c168501518453600184019350603f8116850151845360018401935050611b0d565b5050600386510660018114611b845760028114611b9757611b9f565b603d6001830353603d6002830353611b9f565b603d60018303535b50505080925050505b919050565b611bc78282604051806020016040528060008152506123e2565b5050565b611bd48261173b565b611c13576040517f08c379a0000000000000000000000000000000000000000000000000000000008152600401611c0a9061373d565b60405180910390fd5b80600660008481526020019081526020016000209080519060200190611c3a9291906127db565b505050565b6001816000016000828254019250508190555050565b611cef838383604051602401611c6d9392919061359f565b6040516020818303038152906040527fe3849f79000000000000000000000000000000000000000000000000000000007bffffffffffffffffffffffffffffffffffffffffffffffffffffffff19166020820180517bffffffffffffffffffffffffffffffffffffffffffffffffffffffff83818316178352505050506123b9565b505050565b6000611cff8261173b565b611d3e576040517f08c379a0000000000000000000000000000000000000000000000000000000008152600401611d35906136bd565b60405180910390fd5b6000611d4983610df8565b90508073ffffffffffffffffffffffffffffffffffffffff168473ffffffffffffffffffffffffffffffffffffffff161480611d8b5750611d8a81856114ac565b5b80611dc957508373ffffffffffffffffffffffffffffffffffffffff16611db18461066a565b73ffffffffffffffffffffffffffffffffffffffff16145b91505092915050565b8273ffffffffffffffffffffffffffffffffffffffff16611df282610df8565b73ffffffffffffffffffffffffffffffffffffffff1614611e48576040517f08c379a0000000000000000000000000000000000000000000000000000000008152600401611e3f9061363d565b60405180910390fd5b600073ffffffffffffffffffffffffffffffffffffffff168273ffffffffffffffffffffffffffffffffffffffff161415611eb8576040517f08c379a0000000000000000000000000000000000000000000000000000000008152600401611eaf9061367d565b60405180910390fd5b611ec383838361243d565b611ece6000826117af565b6001600360008573ffffffffffffffffffffffffffffffffffffffff1673ffffffffffffffffffffffffffffffffffffffff1681526020019081526020016000206000828254611f1e91906139e7565b925050819055506001600360008473ffffffffffffffffffffffffffffffffffffffff1673ffffffffffffffffffffffffffffffffffffffff1681526020019081526020016000206000828254611f759190613906565b92505081905550816002600083815260200190815260200160002060006101000a81548173ffffffffffffffffffffffffffffffffffffffff021916908373ffffffffffffffffffffffffffffffffffffffff160217905550808273ffffffffffffffffffffffffffffffffffffffff168473ffffffffffffffffffffffffffffffffffffffff167fddf252ad1be2c89b69c2b068fc378daa952ba7f163c4a11628f55a4df523b3ef60405160405180910390a4612034838383612442565b505050565b60008160405160200161204c919061325b565b6040516020818303038152906040528051906020012060001c9050919050565b6000600760009054906101000a900473ffffffffffffffffffffffffffffffffffffffff16905081600760006101000a81548173ffffffffffffffffffffffffffffffffffffffff021916908373ffffffffffffffffffffffffffffffffffffffff1602179055508173ffffffffffffffffffffffffffffffffffffffff168173ffffffffffffffffffffffffffffffffffffffff167f8be0079c531659141344cd1fd0a4f28419497f9722a3daafe3b4186f6b6457e060405160405180910390a35050565b8173ffffffffffffffffffffffffffffffffffffffff168373ffffffffffffffffffffffffffffffffffffffff1614156121a1576040517f08c379a00000000000000000000000000000000000000000000000000000000081526004016121989061369d565b60405180910390fd5b80600560008573ffffffffffffffffffffffffffffffffffffffff1673ffffffffffffffffffffffffffffffffffffffff16815260200190815260200160002060008473ffffffffffffffffffffffffffffffffffffffff1673ffffffffffffffffffffffffffffffffffffffff16815260200190815260200160002060006101000a81548160ff0219169083151502179055508173ffffffffffffffffffffffffffffffffffffffff168373ffffffffffffffffffffffffffffffffffffffff167f17307eab39ab6107e8899845ad3d59bd9653f200f220920489ca2b5937696c31836040516122929190613562565b60405180910390a3505050565b6122aa848484611dd2565b6122b684848484612447565b6122f5576040517f08c379a00000000000000000000000000000000000000000000000000000000081526004016122ec906135dd565b60405180910390fd5b50505050565b606060405180602001604052806000815250905090565b606061231d8261173b565b61235c576040517f08c379a0000000000000000000000000000000000000000000000000000000008152600401612353906137dd565b60405180910390fd5b60006123666122fb565b9050600081511161238657604051806020016040528060008152506123b1565b8061239084611876565b6040516020016123a1929190613272565b6040516020818303038152906040525b915050919050565b60008151905060006a636f6e736f6c652e6c6f679050602083016000808483855afa5050505050565b6123ec83836125de565b6123f96000848484612447565b612438576040517f08c379a000000000000000000000000000000000000000000000000000000000815260040161242f906135dd565b60405180910390fd5b505050565b505050565b505050565b60006124688473ffffffffffffffffffffffffffffffffffffffff166127b8565b156125d1578373ffffffffffffffffffffffffffffffffffffffff1663150b7a026124916117a7565b8786866040518563ffffffff1660e01b81526004016124b39493929190613516565b602060405180830381600087803b1580156124cd57600080fd5b505af19250505080156124fe57506040513d601f19601f820116820180604052508101906124fb9190612b1f565b60015b612581573d806000811461252e576040519150601f19603f3d011682016040523d82523d6000602084013e612533565b606091505b50600081511415612579576040517f08c379a0000000000000000000000000000000000000000000000000000000008152600401612570906135dd565b60405180910390fd5b805181602001fd5b63150b7a0260e01b7bffffffffffffffffffffffffffffffffffffffffffffffffffffffff1916817bffffffffffffffffffffffffffffffffffffffffffffffffffffffff1916149150506125d6565b600190505b949350505050565b600073ffffffffffffffffffffffffffffffffffffffff168273ffffffffffffffffffffffffffffffffffffffff16141561264e576040517f08c379a00000000000000000000000000000000000000000000000000000000081526004016126459061375d565b60405180910390fd5b6126578161173b565b15612697576040517f08c379a000000000000000000000000000000000000000000000000000000000815260040161268e9061365d565b60405180910390fd5b6126a36000838361243d565b6001600360008473ffffffffffffffffffffffffffffffffffffffff1673ffffffffffffffffffffffffffffffffffffffff16815260200190815260200160002060008282546126f39190613906565b92505081905550816002600083815260200190815260200160002060006101000a81548173ffffffffffffffffffffffffffffffffffffffff021916908373ffffffffffffffffffffffffffffffffffffffff160217905550808273ffffffffffffffffffffffffffffffffffffffff16600073ffffffffffffffffffffffffffffffffffffffff167fddf252ad1be2c89b69c2b068fc378daa952ba7f163c4a11628f55a4df523b3ef60405160405180910390a46127b460008383612442565b5050565b6000808273ffffffffffffffffffffffffffffffffffffffff163b119050919050565b8280546127e790613ad1565b90600052602060002090601f0160209004810192826128095760008555612850565b82601f1061282257805160ff1916838001178555612850565b82800160010185558215612850579182015b8281111561284f578251825591602001919060010190612834565b5b50905061285d9190612861565b5090565b5b8082111561287a576000816000905550600101612862565b5090565b600061289161288c8461387d565b613858565b9050828152602081018484840111156128a957600080fd5b6128b4848285613a8f565b509392505050565b6000813590506128cb816147f2565b92915050565b6000813590506128e081614809565b92915050565b6000813590506128f581614820565b92915050565b60008151905061290a81614820565b92915050565b600082601f83011261292157600080fd5b813561293184826020860161287e565b91505092915050565b60008135905061294981614837565b92915050565b60006020828403121561296157600080fd5b600061296f848285016128bc565b91505092915050565b6000806040838503121561298b57600080fd5b6000612999858286016128bc565b92505060206129aa858286016128bc565b9150509250929050565b6000806000606084860312156129c957600080fd5b60006129d7868287016128bc565b93505060206129e8868287016128bc565b92505060406129f98682870161293a565b9150509250925092565b60008060008060808587031215612a1957600080fd5b6000612a27878288016128bc565b9450506020612a38878288016128bc565b9350506040612a498782880161293a565b925050606085013567ffffffffffffffff811115612a6657600080fd5b612a7287828801612910565b91505092959194509250565b60008060408385031215612a9157600080fd5b6000612a9f858286016128bc565b9250506020612ab0858286016128d1565b9150509250929050565b60008060408385031215612acd57600080fd5b6000612adb858286016128bc565b9250506020612aec8582860161293a565b9150509250929050565b600060208284031215612b0857600080fd5b6000612b16848285016128e6565b91505092915050565b600060208284031215612b3157600080fd5b6000612b3f848285016128fb565b91505092915050565b600060208284031215612b5a57600080fd5b6000612b688482850161293a565b91505092915050565b612b7a81613a1b565b82525050565b612b8981613a2d565b82525050565b6000612b9a826138c3565b612ba481856138d9565b9350612bb4818560208601613a9e565b612bbd81613c6a565b840191505092915050565b6000612bd3826138ce565b612bdd81856138ea565b9350612bed818560208601613a9e565b612bf681613c6a565b840191505092915050565b6000612c0c826138ce565b612c1681856138fb565b9350612c26818560208601613a9e565b80840191505092915050565b60008154612c3f81613ad1565b612c4981866138fb565b94506001821660008114612c645760018114612c7557612ca8565b60ff19831686528186019350612ca8565b612c7e856138ae565b60005b83811015612ca057815481890152600182019150602081019050612c81565b838801955050505b50505092915050565b6000612cbe605e836138fb565b9150612cc982613c7b565b605e82019050919050565b6000612ce1607c836138fb565b9150612cec82613cf0565b607c82019050919050565b6000612d046025836138fb565b9150612d0f82613d8b565b602582019050919050565b6000612d276028836138fb565b9150612d3282613dda565b602882019050919050565b6000612d4a6032836138ea565b9150612d5582613e29565b604082019050919050565b6000612d6d600c836138ea565b9150612d7882613e78565b602082019050919050565b6000612d906026836138ea565b9150612d9b82613ea1565b604082019050919050565b6000612db36025836138ea565b9150612dbe82613ef0565b604082019050919050565b6000612dd6601c836138ea565b9150612de182613f3f565b602082019050919050565b6000612df9600a836138fb565b9150612e0482613f68565b600a82019050919050565b6000612e1c6024836138ea565b9150612e2782613f91565b604082019050919050565b6000612e3f6019836138ea565b9150612e4a82613fe0565b602082019050919050565b6000612e626025836138fb565b9150612e6d82614009565b602582019050919050565b6000612e856062836138fb565b9150612e9082614058565b606282019050919050565b6000612ea8600b836138fb565b9150612eb3826140f3565b600b82019050919050565b6000612ecb600b836138fb565b9150612ed68261411c565b600b82019050919050565b6000612eee602c836138ea565b9150612ef982614145565b604082019050919050565b6000612f11607c836138fb565b9150612f1c82614194565b607c82019050919050565b6000612f346001836138fb565b9150612f3f8261422f565b600182019050919050565b6000612f576038836138ea565b9150612f6282614258565b604082019050919050565b6000612f7a602a836138ea565b9150612f85826142a7565b604082019050919050565b6000612f9d6029836138ea565b9150612fa8826142f6565b604082019050919050565b6000612fc0602e836138ea565b9150612fcb82614345565b604082019050919050565b6000612fe36002836138fb565b9150612fee82614394565b600282019050919050565b60006130066007836138fb565b9150613011826143bd565b600782019050919050565b60006130296020836138ea565b9150613034826143e6565b602082019050919050565b600061304c6031836138ea565b91506130578261440f565b604082019050919050565b600061306f602c836138ea565b915061307a8261445e565b604082019050919050565b60006130926005836138fb565b915061309d826144ad565b600582019050919050565b60006130b56020836138ea565b91506130c0826144d6565b602082019050919050565b60006130d86003836138fb565b91506130e3826144ff565b600382019050919050565b60006130fb602f836138ea565b915061310682614528565b604082019050919050565b600061311e6001836138fb565b915061312982614577565b600182019050919050565b60006131416021836138ea565b915061314c826145a0565b604082019050919050565b6000613164600a836138fb565b915061316f826145ef565b600a82019050919050565b6000613187601d836138fb565b915061319282614618565b601d82019050919050565b60006131aa6031836138ea565b91506131b582614641565b604082019050919050565b60006131cd602d836138fb565b91506131d882614690565b602d82019050919050565b60006131f0602e836138fb565b91506131fb826146df565b602e82019050919050565b60006132136006836138fb565b915061321e8261472e565b600682019050919050565b6000613236607c836138fb565b915061324182614757565b607c82019050919050565b61325581613a85565b82525050565b60006132678284612c01565b915081905092915050565b600061327e8285612c01565b915061328a8284612c01565b91508190509392505050565b60006132a28287612c01565b91506132ad826130cb565b91506132b98286612c01565b91506132c482612f27565b91506132d08285612c01565b91506132db82612f27565b91506132e78284612c01565b915081905095945050505050565b60006133018288612c32565b915061330c82613229565b91506133188287612c01565b915061332382612ff9565b915061332e82612cd4565b915061333a8286612c01565b915061334582612ff9565b915061335082612f04565b915061335c8285612c01565b915061336782612ff9565b915061337282612cb1565b915061337d82613111565b91506133898284612c01565b915061339482612ff9565b915061339f82613206565b91508190509695505050505050565b60006133b982612cf7565b91506133c58284612c01565b915081905092915050565b60006133db82612dec565b91506133e78284612c01565b915081905092915050565b60006133fd82612e9b565b91506134098284612c01565b915081905092915050565b600061341f82612ebe565b915061342b8288612c01565b915061343682612e78565b915061344182612d1a565b915061344d8287612c01565b9150613458826131e3565b91506134648286612c01565b915061346f826131c0565b915061347b8285612c01565b915061348682613085565b915061349182612e55565b915061349d8284612c01565b91506134a882612fd6565b91508190509695505050505050565b60006134c282613157565b91506134ce8284612c01565b915081905092915050565b60006134e48261317a565b91506134f08284612c01565b915081905092915050565b60006020820190506135106000830184612b71565b92915050565b600060808201905061352b6000830187612b71565b6135386020830186612b71565b613545604083018561324c565b81810360608301526135578184612b8f565b905095945050505050565b60006020820190506135776000830184612b80565b92915050565b600060208201905081810360008301526135978184612bc8565b905092915050565b600060608201905081810360008301526135b98186612bc8565b90506135c8602083018561324c565b6135d56040830184612b71565b949350505050565b600060208201905081810360008301526135f681612d3d565b9050919050565b6000602082019050818103600083015261361681612d60565b9050919050565b6000602082019050818103600083015261363681612d83565b9050919050565b6000602082019050818103600083015261365681612da6565b9050919050565b6000602082019050818103600083015261367681612dc9565b9050919050565b6000602082019050818103600083015261369681612e0f565b9050919050565b600060208201905081810360008301526136b681612e32565b9050919050565b600060208201905081810360008301526136d681612ee1565b9050919050565b600060208201905081810360008301526136f681612f4a565b9050919050565b6000602082019050818103600083015261371681612f6d565b9050919050565b6000602082019050818103600083015261373681612f90565b9050919050565b6000602082019050818103600083015261375681612fb3565b9050919050565b600060208201905081810360008301526137768161301c565b9050919050565b600060208201905081810360008301526137968161303f565b9050919050565b600060208201905081810360008301526137b681613062565b9050919050565b600060208201905081810360008301526137d6816130a8565b9050919050565b600060208201905081810360008301526137f6816130ee565b9050919050565b6000602082019050818103600083015261381681613134565b9050919050565b600060208201905081810360008301526138368161319d565b9050919050565b6000602082019050613852600083018461324c565b92915050565b6000613862613873565b905061386e8282613b03565b919050565b6000604051905090565b600067ffffffffffffffff82111561389857613897613c3b565b5b6138a182613c6a565b9050602081019050919050565b60008190508160005260206000209050919050565b600081519050919050565b600081519050919050565b600082825260208201905092915050565b600082825260208201905092915050565b600081905092915050565b600061391182613a85565b915061391c83613a85565b9250827fffffffffffffffffffffffffffffffffffffffffffffffffffffffffffffffff0382111561395157613950613bae565b5b828201905092915050565b600061396782613a85565b915061397283613a85565b92508261398257613981613bdd565b5b828204905092915050565b600061399882613a85565b91506139a383613a85565b9250817fffffffffffffffffffffffffffffffffffffffffffffffffffffffffffffffff04831182151516156139dc576139db613bae565b5b828202905092915050565b60006139f282613a85565b91506139fd83613a85565b925082821015613a1057613a0f613bae565b5b828203905092915050565b6000613a2682613a65565b9050919050565b60008115159050919050565b60007fffffffff0000000000000000000000000000000000000000000000000000000082169050919050565b600073ffffffffffffffffffffffffffffffffffffffff82169050919050565b6000819050919050565b82818337600083830152505050565b60005b83811015613abc578082015181840152602081019050613aa1565b83811115613acb576000848401525b50505050565b60006002820490506001821680613ae957607f821691505b60208210811415613afd57613afc613c0c565b5b50919050565b613b0c82613c6a565b810181811067ffffffffffffffff82111715613b2b57613b2a613c3b565b5b80604052505050565b6000613b3f82613a85565b91507fffffffffffffffffffffffffffffffffffffffffffffffffffffffffffffffff821415613b7257613b71613bae565b5b600182019050919050565b6000613b8882613a85565b9150613b9383613a85565b925082613ba357613ba2613bdd565b5b828206905092915050565b7f4e487b7100000000000000000000000000000000000000000000000000000000600052601160045260246000fd5b7f4e487b7100000000000000000000000000000000000000000000000000000000600052601260045260246000fd5b7f4e487b7100000000000000000000000000000000000000000000000000000000600052602260045260246000fd5b7f4e487b7100000000000000000000000000000000000000000000000000000000600052604160045260246000fd5b6000601f19601f8301169050919050565b7f3c7465787420783d273334302720793d27333430272066696c6c3d277768697460008201527f652720666f6e742d66616d696c793d276d6f6e6f73706163652720666f6e742d60208201527f73697a653d27313470782720746578742d616e63686f723d27656e64273e0000604082015250565b7f3c7465787420783d273530252720793d27313735272066696c6c3d277768697460008201527f652720666f6e742d66616d696c793d276d6f6e6f73706163652720666f6e742d60208201527f73697a653d27323870782720646f6d696e616e742d626173656c696e653d276d60408201527f6964646c652720746578742d616e63686f723d276d6964646c65273e00000000606082015250565b7f68747470733a2f2f6e6674707265766965772e30786465762e636f6465732f3f60008201527f636f64653d000000000000000000000000000000000000000000000000000000602082015250565b7f7b202274726169745f74797065223a2022466972737420576f7264222c20227660008201527f616c7565223a2022000000000000000000000000000000000000000000000000602082015250565b7f4552433732313a207472616e7366657220746f206e6f6e20455243373231526560008201527f63656976657220696d706c656d656e7465720000000000000000000000000000602082015250565b7f436865636b207072696365210000000000000000000000000000000000000000600082015250565b7f4f776e61626c653a206e6577206f776e657220697320746865207a65726f206160008201527f6464726573730000000000000000000000000000000000000000000000000000602082015250565b7f4552433732313a207472616e736665722066726f6d20696e636f72726563742060008201527f6f776e6572000000000000000000000000000000000000000000000000000000602082015250565b7f4552433732313a20746f6b656e20616c7265616479206d696e74656400000000600082015250565b7f54484952445f574f524400000000000000000000000000000000000000000000600082015250565b7f4552433732313a207472616e7366657220746f20746865207a65726f2061646460008201527f7265737300000000000000000000000000000000000000000000000000000000602082015250565b7f4552433732313a20617070726f766520746f2063616c6c657200000000000000600082015250565b7f2022696d616765223a2022646174613a696d6167652f7376672b786d6c3b626160008201527f736536342c000000000000000000000000000000000000000000000000000000602082015250565b7f222c20226465736372697074696f6e223a20224120686967686c79206465736360008201527f72697074697665206964656e74696669636174696f6e206f66204e4654202d2060208201527f6279204a6f7267652041677569727265222c202261747472696275746573223a60408201527f205b000000000000000000000000000000000000000000000000000000000000606082015250565b7f5345434f4e445f574f5244000000000000000000000000000000000000000000600082015250565b7f7b226e616d65223a202223000000000000000000000000000000000000000000600082015250565b7f4552433732313a206f70657261746f7220717565727920666f72206e6f6e657860008201527f697374656e7420746f6b656e0000000000000000000000000000000000000000602082015250565b7f3c7465787420783d273530252720793d27323135272066696c6c3d277768697460008201527f652720666f6e742d66616d696c793d276d6f6e6f73706163652720666f6e742d60208201527f73697a653d27323870782720646f6d696e616e742d626173656c696e653d276d60408201527f6964646c652720746578742d616e63686f723d276d6964646c65273e00000000606082015250565b7f2000000000000000000000000000000000000000000000000000000000000000600082015250565b7f4552433732313a20617070726f76652063616c6c6572206973206e6f74206f7760008201527f6e6572206e6f7220617070726f76656420666f7220616c6c0000000000000000602082015250565b7f4552433732313a2062616c616e636520717565727920666f7220746865207a6560008201527f726f206164647265737300000000000000000000000000000000000000000000602082015250565b7f4552433732313a206f776e657220717565727920666f72206e6f6e657869737460008201527f656e7420746f6b656e0000000000000000000000000000000000000000000000602082015250565b7f45524337323155524953746f726167653a2055524920736574206f66206e6f6e60008201527f6578697374656e7420746f6b656e000000000000000000000000000000000000602082015250565b7f227d000000000000000000000000000000000000000000000000000000000000600082015250565b7f3c2f746578743e00000000000000000000000000000000000000000000000000600082015250565b7f4552433732313a206d696e7420746f20746865207a65726f2061646472657373600082015250565b7f45524337323155524953746f726167653a2055524920717565727920666f722060008201527f6e6f6e6578697374656e7420746f6b656e000000000000000000000000000000602082015250565b7f4552433732313a20617070726f76656420717565727920666f72206e6f6e657860008201527f697374656e7420746f6b656e0000000000000000000000000000000000000000602082015250565b7f22207d5d2c000000000000000000000000000000000000000000000000000000600082015250565b7f4f776e61626c653a2063616c6c6572206973206e6f7420746865206f776e6572600082015250565b7f202d200000000000000000000000000000000000000000000000000000000000600082015250565b7f4552433732314d657461646174613a2055524920717565727920666f72206e6f60008201527f6e6578697374656e7420746f6b656e0000000000000000000000000000000000602082015250565b7f2300000000000000000000000000000000000000000000000000000000000000600082015250565b7f4552433732313a20617070726f76616c20746f2063757272656e74206f776e6560008201527f7200000000000000000000000000000000000000000000000000000000000000602082015250565b7f46495253545f574f524400000000000000000000000000000000000000000000600082015250565b7f646174613a6170706c69636174696f6e2f6a736f6e3b6261736536342c000000600082015250565b7f4552433732313a207472616e736665722063616c6c6572206973206e6f74206f60008201527f776e6572206e6f7220617070726f766564000000000000000000000000000000602082015250565b7f22207d2c207b202274726169745f74797065223a2022546869726420576f726460008201527f222c202276616c7565223a202200000000000000000000000000000000000000602082015250565b7f22207d2c207b202274726169745f74797065223a20225365636f6e6420576f7260008201527f64222c202276616c7565223a2022000000000000000000000000000000000000602082015250565b7f3c2f7376673e0000000000000000000000000000000000000000000000000000600082015250565b7f3c7465787420783d273530252720793d27313335272066696c6c3d277768697460008201527f652720666f6e742d66616d696c793d276d6f6e6f73706163652720666f6e742d60208201527f73697a653d27323870782720646f6d696e616e742d626173656c696e653d276d60408201527f6964646c652720746578742d616e63686f723d276d6964646c65273e00000000606082015250565b6147fb81613a1b565b811461480657600080fd5b50565b61481281613a2d565b811461481d57600080fd5b50565b61482981613a39565b811461483457600080fd5b50565b61484081613a85565b811461484b57600080fd5b5056fe416e204e465420772f20494420257320686173206265656e206d696e74656420746f2025734142434445464748494a4b4c4d4e4f505152535455565758595a6162636465666768696a6b6c6d6e6f707172737475767778797a303132333435363738392b2fa26469706673582212205c19c1111675f2a3c9355e0c30b8a5d9b404174fd66a4532f187dda6b7727f7264736f6c634300080100333c73766720786d6c6e733d27687474703a2f2f7777772e77332e6f72672f323030302f73766727207072657365727665417370656374526174696f3d27784d696e594d696e206d656574272076696577426f783d273020302033353020333530273e3c726563742077696474683d273130302527206865696768743d2731303025272066696c6c3d27626c61636b27202f3e3c67207472616e73666f726d3d276d617472697828302e322c20302c20302c20302e322c203135302c20323029273e3c67207472616e73666f726d3d276d617472697828342e3732353330313131313034353635332c302c302c342e3732353330313131313034353635332c302e303030303334373638393933313034303738332c302e30313937323132353938313433303537343229272066696c6c3d277768697465273e3c7061746820643d274d32332e31312035352e37384c312e36392034332e343141332e333920332e333920302030203120302034302e34385631352e373561332e333920332e333920302030203120312e36392d322e39344c32332e31312e343561332e333920332e333920302030203120332e333920306c32312e34312031322e333761332e333920332e333920302030203120312e363920322e39347632342e373261332e333920332e33392030203020312d312e363920322e39344c32362e352035352e373861332e333920332e33392030203020312d332e333920307a27202f3e3c2f673e3c67207472616e73666f726d3d276d617472697828312e343239393736363137393937303732382c302c302c312e343239393736363137393937303732382c34362e3933313134343335343431313436352c32362e323730313239333338353232333529272066696c6c3d27626c61636b273e3c7061746820643d274d38332e393432303336312c35302e30303331373631204338342e303435353938382c34392e323536303738322038332e3830373636362c34382e343732333833382038332e323332353230312c34372e38393732333739204c36382e303230333137332c33322e36383530333531204336372e303530363831312c33312e373135333938392036352e343638383232312c33312e373130393133312036342e343935393237392c33322e36383338303732204336332e353136323530392c33332e363633343834332036332e353233353833342c33352e323334363234332036342e343937313535382c33362e32303831393636204c37382e323838313634322c34392e39393932303531204c36342e343939353837352c36332e37383737383138204336332e353239393531332c36342e3735373431382036332e353235343635342c36362e3333393237372036342e343938333539362c36372e33313231373132204336352e343738303336372c36382e323931383438322036372e303439313736372c36382e323834353135372036382e3032323734392c36372e33313039343333204c38332e323334393531382c35322e30393837343036204338332e383034363833312c35312e353239303039332038342e303431323034382c35302e373437393133352038332e393432303336312c35302e30303331373631204c38332e393432303336312c35302e30303331373631205a204d31342e303537393633392c35302e30303331373631204331332e393534343031322c34392e323536303738322031342e3139323333342c34382e343732333833382031342e373637343739392c34372e38393732333739204c32392e393739363832372c33322e36383530333531204333302e393439333138392c33312e373135333938392033322e353331313737392c33312e373130393133312033332e353034303732312c33322e36383338303732204333342e343833373439312c33332e363633343834332033342e343736343136362c33352e323334363234332033332e353032383434322c33362e32303831393636204c31392e373131383335382c34392e39393932303531204c33332e353030343132352c36332e37383737383138204333342e343730303438372c36342e3735373431382033342e343734353334362c36362e3333393237372033332e353031363430342c36372e33313231373132204333322e353231393633332c36382e323931383438322033302e393530383233332c36382e323834353135372032392e3937373235312c36372e33313039343333204c31342e373635303438322c35322e30393837343036204331342e313935333136392c35312e353239303039332031332e393538373935322c35302e373437393133352031342e303537393633392c35302e30303331373631204c31342e303537393633392c35302e30303331373631205a204d35342e393930313835362c32372e36393434393134204335352e333636323534342c32362e3636313235312035362e353035333131332c32362e313237323635362035372e353530353033362c32362e35303736383435204335382e353838343539342c32362e383835343639352035392e313235383130392c32382e303237313731392035382e373438393536312c32392e303632353732204c34332e303039383134342c37322e33303535303836204334322e363333373435362c37332e3333383734392034312e343934363838372c37332e383732373334342034302e343439343936342c37332e34393233313535204333392e343131353430362c37332e313134353330352033382e383734313839312c37312e393732383238312033392e323531303433392c37302e393337343238204c35342e393930313835362c32372e36393434393134205a27202f3e3c2f673e3c67207472616e73666f726d3d276d617472697828312e303536333430313834383635393739372c302c302c312e303536333430313834383635393739372c34302e3439303137333635353538323432342c3134392e3932383234333632343930323529272066696c6c3d27626c61636b273e3c7061746820643d274d31362e3238362033352e37313433206c2d342e3238353720342e32383537206c2d31302e3537312030206c30202d362e32383537206c372e343238362030206c30202d32322e323836206c372e343238362030206c302032342e323836207a204d34332e3731342031312e343238393939393939393939393938206c342e3238353720342e32383537206c30203230206c2d342e3238353720342e32383537206c2d31362e3537312030206c2d342e32383537202d342e32383537206c30202d3230206c342e32383537202d342e32383537206c31362e3537312030207a204d34302e3537312033332e37313433206c30202d3136206c2d31302e3238362030206c30203136206c31302e3238362030207a204d38302e32383532383537313432383537322031352e373133393939393939393939393939206c30203130206c2d342e3238353720342e32383537206c342e3238353720362e35373134206c3020332e34323836206c2d362e383537312030206c2d352e39343239202d392e37313433206c2d352e343835372030206c3020392e37313433206c2d372e343238362030206c30202d32382e353731206c32312e3432392030207a204d37322e3835373238353731343238353732203234206c30202d362e32383537206c2d31302e3835372030206c3020362e32383537206c31302e3835372030207a204d3130342e3835372031372e373134206c2d31302e3537312030206c30203136206c31302e3835372030206c30202d342e38353731206c2d362e353731342030206c30202d362e32383537206c31342030206c302031332e313433206c2d342e3238353720342e32383537206c2d31372e3134332030206c2d342e32383537202d342e32383537206c30202d3230206c342e32383537202d342e32383537206c31372e3134332030206c342e3238353720342e32383537206c3020342e32383537206c2d352e343238362030207a204d3134332e34323837313432383537313432382031372e373134206c2d31362e3835372030206c3020342e38353731206c31342e3537312030206c3020362e32383537206c2d31342e3537312030206c3020342e38353731206c31362e3835372030206c3020362e32383537206c2d32302030206c2d342e32383537202d342e32383537206c30202d32342e323836206c32342e3238362030206c3020362e32383537207a27202f3e3c2f673e3c2f673e",
  "linkReferences": {},
  "deployedLinkReferences": {}
}